:020000040800F2
:1000000098EE01205D0200089F3400089734000834
:100010009B3400089B0B0008F13900080000000029
:100020000000000000000000000000009D0100082A
:10003000E10B000800000000F9010008A1340008ED
:100040008102000881020008810200088102000884
:100050008102000881020008810200088102000874
:100060008102000881020008810200088102000864
:100070008102000881020008810200088102000854
:100080008102000881020008810200088102000844
:10009000A10B00088102000881020008810200080B
:1000A0008102000881020008810200088102000824
:1000B0008102000881020008C9340008810200089A
:1000C0008102000881020008810200088102000804
:1000D00081020008E139000881020008810200085D
:1000E00081020008810200088102000881020008E4
:1000F00081020008810200088102000881020008D4
:1001000081020008810200088102000881020008C3
:1001100081020008810200088102000881020008B3
:1001200081020008810200088102000881020008A3
:10013000810200089D0C000881020008810200086D
:100140008102000881020008810200088102000883
:100150008102000881020008810200088102000873
:100160008102000881020008810200088102000863
:1001700081020008810200088102000800000000DE
:100180008102000881020008DFF80CD000F032FB89
:1001900000480047DDE7000898EE01202C4B196865
:1001A0000868B0E8F04F80F30988BFF36F8F4FF015
:1001B000000080F3118870470000000008480068C4
:1001C000006880F308884FF0000080F3148862B65E
:1001D00061B6BFF34F8FBFF36F8F00DF00BF00BF6B
:1001E00008ED00E0DFF80C00016841F470010160E7
:1001F000704700BF88ED00E0EFF30980BFF36F8F19
:10020000134B1A681EF0100F08BF20ED108A20E96A
:10021000F04F106009B44FF0500080F31188BFF325
:100220004F8FBFF36F8F1BF02DF84FF0000080F35E
:10023000118809BC19680868B0E8F04F1EF0100F6B
:1002400008BFB0EC108A80F30988BFF36F8F704746
:10025000B0020020EFF305807047000009480168F4
:1002600041F4700101600848804708480047FEE7F4
:10027000FEE7FEE7FEE7FEE7FEE7FEE7FEE7FEE756
:10028000FEE7000088ED00E0B534000889010008B1
:100290002DE9F05F0546002092469B4688460646BB
:1002A000814640241BE0284641464746224600F04E
:1002B000F0F953465A46C01A914110D311461846D8
:1002C000224600F0D7F92D1A67EB01084F46224667
:1002D0000120002100F0CEF917EB00094E41201E4D
:1002E000A4F10104DFDC484631462A464346BDE816
:1002F000F09F000000487047F4F8010810B504466C
:10030000FFF7F8FF0068005D00F0010010BD00007D
:100310000649074A0868504343F23902104408600E
:100320004008704701490860704700003003002012
:100330006D4EC64110B5431A934209D283188818EE
:1003400003E010F8011D03F8011D521EF9D210BD83
:1003500040EA01039B0703D009E008C9121F08C047
:10036000042AFAD203E011F8013B00F8013B521EC7
:10037000F9D210BDD2B201E000F8012B491EFBD228
:1003800070470022F6E710B513460A4604461946A0
:10039000FFF7F0FF204610BD421C10F8011B00299A
:1003A000FBD1801A704730B504460020034600E0B8
:1003B0005B1C934203D2E05CCD5C401BF8D030BDA7
:1003C0000FB400B58DB010A909900B9000914FF0BB
:1003D000FF300A9000200C900548069005480790D1
:1003E0006A4609A80F9900F079F90DB05DF814FB81
:1003F000F9060008170700082DE9FF5F1D464FF0BA
:10040000FF3BD5E9014691465F464FF00008A969D8
:100410007F1C01988847296A824688470028F6D1C0
:10042000BAF1FF3F0CD024F4C064002E19DD600641
:1004300014D5BAF12B0F09D0BAF12D0F0ED103E06C
:10044000584604B0BDE8F09F44F48064A9697F1C5D
:1004500001988847761E8246002E02DDBAF1300FE1
:1004600003D0B9F1000F26D032E0A969761E44F41A
:1004700000747F1C019888478246002E05DDBAF182
:10048000780F06D0BAF1580F03D0B9F1000F10D091
:100490001EE0B9F1000F02D0B9F1100F18D1A9690F
:1004A000761E24F400747F1C019888478246102031
:1004B00002E0082000E00A20814609E008FB090864
:1004C000A969761E44F400747F1C0198884782460F
:1004D000002E05DD4946504600F0EBF80028EDDA25
:1004E000E96901988847A00502D46FF00100A8E7E8
:1004F000E00725D1600613D5600502D5C8F10000DC
:1005000000E0404629680A1D2A600968220501D5D5
:10051000087015E0220701D5088011E008600FE09F
:100520002868011D29600068210502D580F8008037
:1005300006E0210702D5A0F8008001E0C0F80080A5
:1005400038467EE72DE9FE4F81EA030404F00044BB
:1005500021F0004100944FF0000B23F0004350EADB
:1005600001045ED052EA03045BD0C3F30A54C1F322
:100570000A552C44A4F2F3340194A0FB0254C1F3B5
:10058000130141F48011C3F3130343F4801301FBFF
:10059000024400FB034E840A970A44EA815447EA66
:1005A0008357A4FB076802958D0A05FB07854FEA70
:1005B000932C04FB0C542705029D4FEA065847EA8A
:1005C0001637B5EB08056EEB070C870E920E47EA5F
:1005D000811742EA8312A7FB0201B6EB0B0164EB21
:1005E00000042B0D43EA0C335E1844EB1C50DA4632
:1005F0005146E7FB0201C5F313044FEA0B3343EA0C
:1006000014534FEA0432019C43EA0603A4F10C049C
:100610000294009CCDE900B400F09DF803B0BDE861
:10062000F08F00200146F9E70EB540F23341029108
:100630000021CDE900110A460B4600F08CF803B00A
:1006400000BDC1F30A5210B5C1F3130140F2FF33EC
:1006500041F480119A4201DA002010BD40F2334388
:100660009A42A2F2334203DC524200F012F810BD6B
:10067000904010BD202A04DB203A00FA02F100204D
:1006800070479140C2F1200320FA03F319439040D0
:100690007047202A04DB203A21FA02F0002170473B
:1006A00021FA02F3D040C2F12002914008431946DA
:1006B00070473A2800D2303820F02002412A01D376
:1006C000A2F13700884201D34FF0FF30704700009D
:1006D000026811441378016018467047D1600449DC
:1006E00051610449116200211161114600F094B872
:1006F000D1060008FD020008426842B1016811F805
:10070000013B23B1521EC0E9001218467047012177
:10071000C160881E704742685AB1C368016843B916
:1007200083688B4205D0491E521CC0E9001200208C
:1007300070474FF0FF30704710B5141E73F100047E
:1007400008DA401C41F1000192185B411A4301D1C3
:1007500020F0010010BD2DE9F04D92469B4611B1ED
:10076000B1FA81F202E0B0FA80F220329046FFF74F
:1007700081FF04460F4640EA0A0041EA0B01534656
:100780005A46084313D0114653EA010019D0C8F164
:1007900040025046FFF77DFF05460E46504659463B
:1007A0004246FFF767FF084305D0012004E02046DA
:1007B0003946BDE8F08D0020054346EAE0762C433B
:1007C00037430A986305E40AA0EB08000022FD0AFB
:1007D00044EA47540A3002D500200146E9E7010502
:1007E00010196941DDE9084500196941BDE8F04D7E
:1007F000A2E70000064C074D06E0E06840F0010368
:1008000094E8070098471034AC42F6D3FFF7C0FCD9
:1008100030FC010850FC01082DE9F34F8BB04FF07C
:10082000000801F10C000C464FF0010B46460DF19B
:10083000080A01906269012101989047051E2DD098
:10084000252D2CD0216A8847C0B162690121019809
:100850009047216A88470028F7D1411E62690198B4
:10086000904700E0761CA1690B988847216A884769
:100870000028F7D1E1690B988847DBE7A1690B985D
:1008800088470746A84201D1761CD3E7E1690B9857
:1008900088477F1C02D1B8F1000F6FD046E10027D6
:1008A00062693D463946019890472A2804D1626919
:1008B0000121019890470125DFF8849262690121A6
:1008C00001989047A0F130010A290AD24F45E5DC92
:1008D00007EB870100EB4107303FDFD445F01005FF
:1008E000ECE7E90601D46FF000476C280AD04C28E9
:1008F00014D0682815D06A280DD074281CD07A2806
:100900001AD01DE062690121019890476C2802D03D
:1009100045F0040514E045F002050DE045F0200522
:100920000AE06269012101989047682802D045F0E9
:10093000080505E045F400656269012101989047CA
:10094000C4E9015765283DD019DC58287AD00CDC61
:10095000452837D004DC252826D0412831D131E084
:1009600046282FD047282CD12CE05B2877D061284F
:1009700028D063287CD0642823D15AE0D0E06F28A7
:1009800048D008DC66281DD067281BD0692821D0F4
:100990006E2816D127E0702845D0732868D07528B6
:1009A00047D078280DD14DE0A1690B9888470546BE
:1009B00025283FF469AFE1690B9888476D1C3FF427
:1009C0006AAFB3E023466A466FF001000B99AFF3BC
:1009D00000809EE045F040006060A80723464FF08D
:1009E000000236D43EE0E8077FF447AF2068011DDF
:1009F00021600068290501D506701BE7290701D58C
:100A0000068017E7A90703D5F117C0E9006111E7D0
:100A100006600FE745F040006060A80723464FF0EE
:100A2000080216D41EE040F60E0125EA01006060BF
:100A300016E045F040006060A80723464FF00A0228
:100A400007D40FE045F040006060A80708D52346B2
:100A500010226FF001000B99AFF3008059E007E01E
:100A6000234610226FF001000B99FFF7C5FC50E000
:100A70004FF000094F464B46632802D05B2806D052
:100A800040E0E80601D40120A06001273AE0626955
:100A90000121019890475E2805D14FF00109626954
:100AA000494601989047216939B900210A465346C1
:100AB00043F82120491C0829FADBB0B3216969B940
:100AC000C11700EBD16253110AEB830122F01F0220
:100AD000821A01200B68904003430B606269012178
:100AE000019890475D28E8D1B9F1000F09D00020A6
:100AF000514651F82020D24341F82020401C0828BC
:100B0000F7DB02AB224600976FF001000B99AFF3C1
:100B1000008000280CDA401C08D1BBF1000F05D082
:100B20004FF0FF300DB0BDE8F08FFFE74046F9E72A
:100B3000E90701D108F1010806444FF0000B79E6FE
:100B4000CCCCCC0C70B58C1810F8015B15F00703F9
:100B500001D110F8013B2A1106D110F8012B03E056
:100B600010F8016B01F8016B5B1EF9D12B0705D45E
:100B70000023521E0DD401F8013BFAE710F8013BA7
:100B8000CB1A921C03E013F8015B01F8015B521EC3
:100B9000F9D5A142D8D3002070BD00BFFEE7000008
:100BA00010B50C49204603F0FDFA0B48806810B9D7
:100BB0000948006801E0084840680649491F086084
:100BC0000548007C08710548007840F08000034922
:100BD000087010BD3D05002088050020A4020020FB
:100BE0007047016801F58051896921F002020168AE
:100BF00001F580518A617047016801F5805189696A
:100C000041F00202016801F580518A617047016874
:100C100001F58051896921F40052016801F5805184
:100C20008A617047016801F58051896941F4005279
:100C3000016801F580518A617047000008B50849D4
:100C40000968C9084FF47A72B1FBF2F1414300918F
:100C500000BF00BF00994A1E00920029F9D108BDCB
:100C60000000002038B5044600200090206800F500
:100C70008050806940F48011206800F580508161C7
:100C8000206800F58050806900900120FFF7D6FFB2
:100C90000099206800F58050816138BD10B50A497F
:100CA000886A06F057F908B10CF092FF4FF48031D2
:100CB0000548006800F58050416140210248006805
:100CC00000F58050416110BDF004002030B50346AE
:100CD0001479557944EA0520084C0C442064D478F2
:100CE0002406957844EA0544557844EA05241578A5
:100CF00044EA0500014C0C44606430BD00800240B1
:100D000070B5AEB004460E46002526B14FF4006122
:100D1000E160C900A160002011901290139014901E
:100D200015901690E06918B94FF48060179001E0B3
:100D3000002017904FF400701890002019901A901E
:100D40001B901C901D9040201E9000201F90209012
:100D50002190229023902490259026908020279007
:100D60000020289029902A902B902C902D9020687C
:100D7000056871480540DDE91101084313990843EE
:100D800014990843A1680843159908431699084324
:100D9000E1680843179908431899084319990843CB
:100DA0001A9908431B990843054320680560206889
:100DB0000568012000F08AFD20680560DDE91C015E
:100DC00008431E9908431F99084320990843219915
:100DD0000843229908432399084321684860206802
:100DE0004568012000F072FD206845602498216864
:100DF000886025982168C860206885694FF6417031
:100E00000540DDE9261040EA014028990843299968
:100E100008432A9908432B990843054320688561B4
:100E200020688569012000F051FD20688561DDE9B9
:100E30002C0108432168C8612068C569012000F0C1
:100E400045FD2068C561002001904FF000700290C0
:100E5000002003904FF400100490002005900690AD
:100E60000790089004200990C0050A9040120B904A
:100E700080010C9040120D9080200E9000200F9069
:100E80001090206800F5805085692C480540DDE908
:100E9000010108430399084304990843059908434D
:100EA0000699084307990843089908430999084394
:100EB0000543206800F580508561206800F580506A
:100EC0008569012000F002FD206800F580508561F1
:100ED000DDE90A0108430C9908430D9908430E996E
:100EE00008430F9940EA81001099084340F400013B
:100EF000206800F580500160206800F5805005688A
:100F0000012000F0E3FC206800F580500560A06936
:100F1000012809D1206800F58050C06908490843BC
:100F2000216801F58051C861002120466269FFF700
:100F3000CDFE2EB070BD00000F8120FF233FDEF8F4
:100F40004000010038B50446002000902068006889
:100F500020F00400216808602068006800900120EB
:100F6000FFF76CFE00982168086038BD38B504466C
:100F7000002000902068006840F0040021680860AC
:100F80002068006800900120FFF758FE0098216853
:100F9000086038BD38B5044600200090206800681D
:100FA00020F0080021680860206800680090012097
:100FB000FFF744FE00982168086038BD38B5044644
:100FC000002000902068006840F008002168086058
:100FD0002068006800900120FFF730FE009821682B
:100FE000086038BD70B504461D460023B5F5804F36
:100FF00013D154F822300C480340D1E9000640EAEE
:1010000006108E6840EA06208E8940EA06408E6906
:101010003043034344F8223003E06FF0704044F85B
:101020002200002070BD00000000F0CF10B5034684
:101030000022086853F8202012480240D1E9010438
:101040002043CC6820430C6920434C6920438C69C1
:101050002043CC6920430C6A20434C6A20438C6AAD
:101060002043CC6A2043CC6B20430C6B20430243CB
:101070008868082801D142F04002086843F820201F
:10108000002010BD8000F0FF30B503460024501C46
:1010900053F8204004F04044D1E9000540EA05102F
:1010A0008D6840EA05208D8940EA0545088A401E82
:1010B00045EA0055087D801E45EA00608D69284399
:1010C0000443501C43F82040002030BD10B50246B8
:1010D00092F82030012B01D0022B1CD101F001002D
:1010E00028B11068806840F080001468A06001F0AA
:1010F000020028B11068806840F400401468A060C5
:1011000001F0040028B11068806840F40000146801
:10111000A060002010BD506A40F480205062012081
:10112000F8E7F0B504460D461E4694F82070206896
:101130008368A86800B900E000BF012F01D0022F2A
:101140007CD103F0806030B903F0006018B903F07F
:101150008050002873D0C3F30161022905D9606A69
:1011600040F4000060620120F0BD01208840306042
:10117000A86860B9B5F800C0E86840EA4C5C20682F
:1011800000F5C07000EB0110C0F800C00FE0D5E919
:1011900001C040EACC00D5F80CC040EA0C00D4F8FD
:1011A00000C00CF5C07C0CEB011CCCF80000D5F89D
:1011B00010C0206800F5C07000EB0110C0F804C03A
:1011C000287D01280ED1206800F5C07000EB0110C9
:1011D000406840F4807C206800F5C07000EB01108E
:1011E000C0F804C0D079000692F806C040EA0C406E
:1011F00092F805C040EA0C2C10794CEA000C2068EB
:1012000000F5C07000EB0110C0F80CC0D0780006EB
:1012100092F802C040EA0C4092F801C040EA0C206B
:1012200092F800C040EA0C00D4F800C00CF5C07C75
:101230000CEB011CCCF80800206801E016E00FE080
:1012400000F5C07000EB0110006840F0010C206850
:1012500000F5C07000EB0110C0F800C0002083E76B
:10126000606A40F40010606201207DE7606A40F42B
:1012700080206062012077E7F0B504460A462168C5
:1012800094F82050012D01D0022D7ED1424901F564
:101290000071086840F001000860086820F47C5084
:1012A00008600868566A40EA06200860107D00F071
:1012B0001F06012000FA06F3C8699843C861A1F52A
:1012C0000071D069C8B9D1F80C029843C1F80C027A
:1012D000908880B2968940EA064601F510705769F9
:1012E00040F83760108880B2168940EA064601F55A
:1012F0001070576900EBC7004660D069012819D10A
:10130000D1F80C021843C1F80C02908880B21688FC
:1013100040EA064601F51070576940F83760908939
:1013200080B2168940EA064601F51070576900EB55
:10133000C7004660906928B9D1F804029843C1F803
:10134000040204E0D1F804021843C1F80402106951
:1013500028B9D1F814029843C1F8140204E0D1F876
:1013600014021843C1F81402106A012804D1D1F8FC
:101370001C021843C1F81C02D1F8000220F0010041
:10138000C1F800020020F0BDFFE7606A40F4802051
:1013900060620120F7E700000064004010B50246DB
:1013A000002092F82030012B01D0022B09D121B965
:1013B0001468E46804F0030003E01468246904F08E
:1013C000030010BD70B5044694F82050012D01D0E3
:1013D000022D7DD151B92068C06800F0030080B9AA
:1013E000606A40F400106062012070BD20680069EE
:1013F00000F0030028B9606A40F400106062012028
:10140000F3E7206800F5D87000EB0110006800F0E9
:1014100004009060906840B9206800F5D87000EB37
:1014200001100068400D106007E0206800F5D870DA
:1014300000EB01100068C0085060206800F5D8700B
:1014400000EB0110006800F00200D060206800F599
:10145000D87000EB0110406800F00F0010612068A8
:1014600000F5D87000EB0110406800F47F40000ADE
:101470009061206800F5D87000EB01104068000C06
:101480005061206800F5D87000EB0110806818707A
:10149000206800F5D87000EB0110806800F47F40F0
:1014A000000A5870206800F5D87000EB01108068C1
:1014B00000F47F00000C9870206800F5D87000EBF5
:1014C00001108068000ED870206800F5D87000E028
:1014D0002FE000EB0110C0681871206800F5D8708B
:1014E00000EB0110C06800F47F40000A58712068CA
:1014F00000F5D87000EB0110C06800F47F00000C0C
:101500009871206800F5D87000EB0110C068000EDB
:10151000D87131B92068C06840F020002668F060BA
:1015200005E02068006940F0200026683061002056
:101530005BE7606A40F480206062012055E7014665
:10154000002091F82020012A01D0022A11D10B6835
:101550009B6803F0806303B1401C0B689B6803F039
:10156000006303B1401C0B689B6803F0805303B118
:10157000401C704770B504460CB9012070BD94F84A
:10158000200010B9204600F0AFF82068006820F075
:1015900002002168086000F0C7FF05460DE000F07A
:1015A000C3FF401B0A2808D9606A40F4003060621B
:1015B000052084F820000120E0E72068406800F062
:1015C00002000028EBD12068006840F0010021688B
:1015D000086000F0A9FF05460DE000F0A5FF401BE4
:1015E0000A2808D9606A40F400306062052084F857
:1015F00020000120C2E72068406800F001000028B8
:10160000EBD0207E012806D12068006840F08000E1
:101610002168086005E02068006820F080002168EB
:101620000860607E012806D12068006840F0400014
:101630002168086005E02068006820F0400021680B
:101640000860A07E012806D12068006840F02000D4
:101650002168086005E02068006820F0200021680B
:101660000860E07E012806D12068006820F01000A4
:101670002168086005E02068006840F010002168DB
:101680000860207F012806D12068006840F008002B
:101690002168086005E02068006820F008002168E3
:1016A0000860607F012806D12068006840F00400CF
:1016B0002168086005E02068006820F004002168C7
:1016C0000860D4E9020108432169084361690843BD
:1016D0006168491E08432168C861002060620120DA
:1016E00084F82000002049E710B586B00446284958
:1016F000206888424AD100BF00BF002000902548E2
:10170000006840F00100234908600846006800F0C6
:101710000100009000BF00BF00BF00BF00BF00205D
:1017200000900846006840F0010008600846006824
:1017300000F00100009000BF00BF00BF00BF00200C
:10174000009014481030006840F0007011491031CA
:1017500008600846006800F00070009000BF00BFFD
:10176000881401900220029001200390022004902E
:101770000920059001A9084800F0BEFD4FF4006063
:10178000019001A9044800F0B7FD00BF06B010BDEC
:1017900000640040303802400000024070B504464A
:1017A00094F82000012822D1022084F8200020682B
:1017B000006820F001002168086000F0B5FE0546D1
:1017C0000DE000F0B1FE401B0A2808D9606A40F421
:1017D00000306062052084F82000012070BD206880
:1017E000406800F001000028EBD16062F6E7606A13
:1017F00040F4002060620120F0E770B50446A56D5A
:1018000000F092FE064694F83500022808D08020A9
:10181000606500BF002084F8340000BF012070BD67
:101820002068006820F01600216808602068406980
:1018300020F0800021684861206C08B9A06C28B1B4
:101840002068006820F008002168086020680068AF
:1018500020F00100216808600FE000F065FE801BA9
:1018600005280AD92020606500BF002084F83400D4
:1018700000BF032084F83500D1E72068006800F03D
:1018800001000028E9D194F85C103F208840A8604E
:1018900000BF002084F8340000BF012084F8350028
:1018A0000020BCE7014691F83500022803D08020D3
:1018B000486501207047052081F8350008680068F8
:1018C00020F001000A6810600020F3E770B50446BC
:1018D00000F02AFE06462546681C10B10448007830
:1018E000054400BF00F020FE801BA842FAD370BD63
:1018F0002C00002070B504460D461646002200BF9D
:1019000094F84500012801D1022070BD012084F81F
:10191000450000BF022084F84400A56200221FE0B9
:1019200005EB42114FF00040086044F2F45048606B
:10193000C2EBC21000EB400006EB80008860A0699B
:10194000012803D1486820F000404860581E9042AA
:1019500004D905EB42102030C86000E0CD60521C75
:101960009A42DDD3206800F58050C560012084F8DC
:10197000440000BF002084F8450000BF00BFC4E75A
:1019800070B504460D461646002200BF94F8450087
:10199000012801D1022070BD012084F8450000BF5C
:1019A000022084F84400E56200221BE005EB4211AE
:1019B0004FF480100860C2EBC21000EB400006EB51
:1019C00080008860E06918B9086840F44000086049
:1019D000581E904204D905EB42102030C86000E048
:1019E000CD60521C9A42E1D3206800F58050056119
:1019F000012084F8440000BF002084F8450000BFA7
:101A000000BFC8E70146002200BF91F84500012849
:101A100001D102207047012081F8450000BF02205B
:101A200081F84400886A006800F00040002838D13E
:101A3000886A006800F48070F0B1886B401C88638D
:101A4000886B012801D1886A08638B6A4B63886AB6
:101A50000068C0F30D40021FCA63086B83680B6403
:101A6000886AC0688862012081F8440000BF0020B5
:101A700081F8450000BFCDE7886A006800F4007077
:101A800048B1886A086300234B6301238B63886A2B
:101A9000C068886205E0886B401C8863886AC068FB
:101AA0008862012081F8440000BF002081F84500D1
:101AB00000BF0120AEE700002DE9FC4104460025EF
:101AC000002001909D4E0027804614B90120BDE8FA
:101AD000FC8194F8440028B9002084F84500204691
:101AE00000F03AF900BF002000909548006840F4EB
:101AF0008040934908600846006800F480400090E8
:101B000000BF00BF8F48006820F400008D490860C6
:101B100008460068216A08438A490860206800F581
:101B20008050006840F00101206800F5805001609D
:101B300000F0FAFC07460FE000F0F6FCC01BB0F521
:101B4000FA7F09D9032084F8440000BF002084F8FC
:101B5000450000BF0320BAE7206800F58050006808
:101B600000F001000028E7D12068056925F01C0578
:101B700000F056FE06467448864205D373488642F6
:101B800002D245F008051AE07048864205D36B483A
:101B9000864202D245F00C0511E06848864203D324
:101BA0006B48864200D20AE06948864205D36948FC
:101BB000864202D245F0040501E045F01005206898
:101BC00005614FF400420021204600F04DFB48B172
:101BD0004FF0010841462046FFF792F8012084F8B3
:101BE000440074E7FF20FFF771FE6068002871D0A1
:101BF00000F09AFC074600BF01AA0121204600F030
:101C0000F9F900F091FCC01B41F2883188420FD9EC
:101C10004FF0010841462046FFF772F8012084F892
:101C2000440000BF002084F8450000BF03204EE7B9
:101C3000019800F004000428DED182020021204631
:101C400000F012FB48B14FF0010841462046FFF773
:101C500057F8012084F8440039E700F065FC074696
:101C600000BF01AA0121204600F0C4F900F05CFC8D
:101C7000C01B41F2883188420FD94FF0010841461C
:101C80002046FFF73DF8012084F8440000BF002003
:101C900084F8450000BF032019E7019800F02000F8
:101CA0002028DED101AA1121204600F0A3F948B175
:101CB0004FF0010841462046FFF722F8012084F842
:101CC000440004E7019800F4005020B14FF4006193
:101CD000E16002E00EE00021E16044F210010198B1
:101CE0000840884202D10021A1601EE04FF48041EB
:101CF000A1601AE0E068C0F3CF00A168C1F34F0112
:101D000040EA01020021204600F0AEFA48B14FF04F
:101D1000010841462046FEF7F3FF012084F8440005
:101D2000D5E640F6FF70FFF7D1FD41462046FEF7AD
:101D3000E7FF012084F844000020C8E600879303F1
:101D40004438024004380140002D3101C00E160213
:101D500000E1F50580D1F00810B586B0044600BF5B
:101D600000BF002000909E48006840F001009C49A0
:101D700008600846006800F00100009000BF00BF46
:101D800000BF00BF00BF002000900846006840F080
:101D9000010008600846006800F00100009000BFE4
:101DA00000BF00BF00BF00BF0020009008460068D1
:101DB00040F0010008600846006800F00100009053
:101DC00000BF00BF00BF00BF00BF0020009008465A
:101DD000006840F0040008600846006800F0040055
:101DE000009000BF00BF00BF00BF00BF00200090F8
:101DF0000846006840F0040008600846006800F0EB
:101E00000400009000BF00BF00BF00BF00BF002063
:101E100000900846006840F004000860084600682A
:101E200000F00400009000BF00BF00BF00BF00BF73
:101E3000002000900846006840F040000860084616
:101E4000006800F04000009000BF00BF00BF00BF6E
:101E500000BF002000900846006840F04000086085
:101E60000846006800F04000009000BF00BF00BFBF
:101E700000BF00BF002000900846006840F040000E
:101E800008600846006800F04000009000BF00BFF6
:101E900000BF00BF00BF002000900846006840F46B
:101EA000807008600846006800F48070009000BFF1
:101EB00000BF00BF00BF00BF0020009008460068C0
:101EC00040F0007008600846006800F00070009064
:101ED00000BF00BF00BF002000900846006840F02F
:101EE000806008600846006800F08060009000BFD5
:101EF00000BF00BF002000900846006840F000606E
:101F000008600846006800F00060009000BF00BF55
:101F100000BF022001900290002003900320049053
:101F20000B20059001A92F4800F0E6F9042001904C
:101F300001A92C4800F0E0F98020019001A929486E
:101F400000F0DAF90220019001A9274800F0D4F945
:101F50001020019001A9244800F0CEF92020019022
:101F600001A9214800F0C8F94FF40060019001A9CF
:101F70001E4800F0C1F94FF40050019001A91B4820
:101F800000F0BAF94FF48040019001A9174800F021
:101F9000B3F9082001900120029000200390032053
:101FA000049001A9124800F0A7F900BF00220821FF
:101FB0000F4800F0ADFA00BF322002F06FF900BF09
:101FC000012208210A4800F0A3FA00BF00220621DE
:101FD0003D2000F010FB3D2000F0FDFA06B010BDE2
:101FE0003038024000000240000802400018024061
:101FF000000C02402DE9F04104460E46174600252C
:10200000A84694F84400822802D10220BDE8F0815D
:10201000822084F844002068056905F01C05208AA8
:102020004FF4784101EAC0200543481100EA8610C8
:10203000054325F0020545F001052068056100F023
:1020400073FA804612E000F06FFAA0EB0800B0F5DA
:10205000803F09D3012084F8440000BF002084F8A9
:10206000450000BF0320D1E72068056905F00100A5
:102070000028E8D12068406980B23860012084F8E7
:1020800044000020C2E710B5044600BF94F84500A4
:10209000012801D1022010BD012084F8450000BFB5
:1020A000022084F844002046FEF788FF2046FEF711
:1020B0005DFF2046FEF7D6FD2046FEF7B3FD204625
:1020C000FEF79AFD012084F8440000BF002084F848
:1020D000450000BF00BFDEE710B5044600BF94F81E
:1020E0004500012801D1022010BD012084F84500DF
:1020F00000BF022084F844002046FEF788FD2046F9
:10210000FEF76FFD2046FEF71DFF2046FEF7AAFDF5
:102110002046FEF73FFF012084F8440000BF002066
:1021200084F8450000BF00BFDEE770B5024600231B
:102130000025002400BF92F84500012801D10220AB
:1021400070BD012082F8450000BF022082F84400E3
:1021500049B9012082F8440000BF002082F8450000
:1021600000BF0120ECE7D06A006800F0004048B1F1
:10217000122082F8440000BF002082F8450000BF12
:102180000120DDE740F2F450814208D9B1FBF0F3C1
:10219000B1FBF0F600FB161010B15B1C00E0012350
:1021A000012B13D1D06A006840F04050D66A3060ED
:1021B000C1F30C00D66A7060D06A006840F000403D
:1021C000D66A3060D06AC068D06232E000242EE067
:1021D000D06A006820F04050D66A30602CB9D06ACE
:1021E000006840F08050D66A306040F2F450D66A01
:1021F0007060581EA04210D1D06A006840F00050B4
:10220000D66A3060581EC0EBC01000EB4000A1EB56
:102210008005C5F30C00D66A7060D06A006840F093
:102220000040D66A3060D06AC068D062641C9C42AC
:10223000CED3106800F58050406900F0040048B12A
:102240000426106800F5805046610026106800F5ED
:1022500080504660012082F8440000BF002082F8D0
:10226000450000BF00BF6BE72DE9F04104460E4674
:1022700017460025A84694F84400422802D10220BF
:10228000BDE8F081422084F844002068056905F02B
:102290001C05208A4FF4784101EAC020054348110B
:1022A00000EA8610054345F0020545F00105B8B285
:1022B000216848612068056100F036F9804612E027
:1022C00000F032F9A0EB0800B0F5803F09D30120FF
:1022D00084F8440000BF002084F8450000BF0320BC
:1022E000CEE72068056905F001000028E8D101204B
:1022F00084F844000020C3E7F8B502460B460025E9
:10230000002400200021DEE0012606FA01F51E6807
:1023100006EA0504AC4275D11E7906F00306012ECB
:1023200004D01E7906F00306022E13D190684F00E8
:102330000326BE40B0434F00DE68BE40304390608D
:10234000506801268E40B0431E79C6F300168E40B9
:10235000304350601E7906F00306032E09D0D06882
:102360004F000326BE40B0434F009E68BE4030433E
:10237000D0601E7906F00306022E13D1CF0802F1B9
:10238000200656F827004E07F70E0F26BE40B04332
:102390004F07FF0E1E69BE403043CF0802F12006F2
:1023A00046F8270010684F000326BE40B0431E7950
:1023B00006F003064F00BE40304310605E6806F032
:1023C0008056B6F1805F7DD100BF00260096404E5A
:1023D000366846F480463E4F3E603E46366806F418
:1023E0008046009600BF00BF3A4E8F0856F827007F
:1023F0008E07370F0F26BE40B043374EB24202D190
:10240000002624E05EE0354EB24201D101261EE0F6
:10241000334EB24201D1022619E0324EB24201D10E
:10242000032614E0304EB24201D104260FE02F4EB5
:10243000B24201D105260AE02D4EB24201D1062654
:1024400005E02C4EB24201D1072600E008268F0796
:102450003F0FBE4030431F4E8F0846F82700264EE0
:102460003068A0435E6806F48036B6F5803F00D140
:102470002043214E3060361D3068A0435E6806F46C
:102480000036B6F5003F00D120431B4E361D3060AC
:10249000361D3068A0435E6806F48016B6F5801FCE
:1024A00000D12043144E08363060361D3068A043FA
:1024B0005E6806F40016B6F5001F00D120430E4EEC
:1024C0000C363060491C1029FFF41EAFF8BD000027
:1024D0004438024008380140000002400004024035
:1024E00000080240000C02400010024000140240AC
:1024F00000180240001C0240003C014010B5426937
:1025000021EA020302EA010443EA0443836110BDA5
:102510000AB1816101E00B048361704701480068E2
:10252000000C7047002004E001480068704700007C
:102530002400002003480068034909780844014941
:1025400008607047240000202C00002010B50D48C2
:10255000006840F400700B4908600846006840F4C9
:10256000806008600846006840F4807008600320BE
:1025700000F080F80F2000F007F800F02BF80020A2
:1025800010BD0000003C024070B504460E480078C3
:102590004FF47A71B1FBF0F00C490968B1FBF0F52A
:1025A000284600F09BFC08B1012070BD102C07D21A
:1025B00000222146501E00F01EF80548046001E08C
:1025C0000120F2E70020F0E72C00002000000020AE
:1025D00028000020704701460846002809DB00F06B
:1025E0001F0301229A4043099B0003F1E023C3F833
:1025F000002100BF70472DE9F05F80460D4616466A
:10260000002701F01BFA074639462A46334601F0F7
:102610000700C0F1070ABAF1040F02D94FF0040A0B
:1026200001E0C0F1070AD14600F1040ABAF1070F30
:1026300002D24FF0000A01E0A0F1030AD4464FF0A5
:10264000010A0AFA09FAAAF1010A0AEA020A0AFACE
:102650000CFA4FF0010B0BFA0CFBABF1010B0BEA80
:10266000030B4AEA0B042146404601F0EFF9BDE8AE
:10267000F09F000000BF00F00702064B19684FF6FC
:10268000FF031940044B0B4343EA0221014B19603D
:1026900000BF70470CED00E00000FA0570B504467D
:1026A0000D460CB9012070BD5848006800F00700C5
:1026B000A84209D255490D700846006800F007008D
:1026C000A84201D00120EEE7207800F002000228A5
:1026D0001DD1207800F00400042805D14C48006882
:1026E00040F4E0504A490860207800F008000828CB
:1026F00005D14748006840F46040454908604448B7
:10270000006820F0F000A168084341490860207883
:1027100000F00100A8B36068012807D13C480838E0
:102720000068C0F34040B8B90120BCE760680228E7
:1027300002D06068032807D1354808380068C0F324
:10274000406048B90120AEE7314808380068C0F35E
:10275000400008B90120A6E72D48006820F00300DA
:10276000616808432A490860FFF7DEFE064609E073
:10277000FFF7DAFE801B41F28831884202D903203C
:1027800091E707E02248006800F00C006168B0EBB8
:10279000810FEDD11D48006800F00700A84209D95B
:1027A0001A490D700846006800F00700A84201D0E1
:1027B000012078E7207800F00400042807D11448AD
:1027C000006820F4E050E16808431149086020786F
:1027D00000F00800082808D10D48006820F4604087
:1027E000216940EAC1000A49086000F03FF8084941
:1027F0000968C1F30311074A515CC84006490860E3
:1028000006480068FFF7C0FE00204CE7003C02408D
:1028100008380240BCC60108000000202800002043
:1028200001480068704700000000002000B5FFF775
:10283000F7FF04490968C1F38221034A515CC8408B
:1028400000BD000008380240CCC6010800B5FFF703
:10285000E7FF04490968C1F34231034A515CC840AB
:1028600000BD000008380240CCC601082DE9F04741
:10287000002400250026A1462548006800F00C0031
:1028800020B1042805D008283AD105E0DFF884906B
:1028900039E0DFF8849036E01D48001F006800F042
:1028A0003F041B48001F006800F4800078B11A48FC
:1028B0001749091F0968C1F38811A0FB017001467F
:1028C000224600233846FDF7E3FC05460EE011489A
:1028D0000F49091F0968C1F38811A0FB0170014667
:1028E000224600233846FDF7D3FC05460848001F62
:1028F0000068C0F30140401C4600B5FBF6F902E059
:10290000DFF8109000BF00BF4846BDE8F087000028
:10291000083802400024F40000127A00F8B504469A
:102920000CB90120F8BD207800F00100002874D017
:10293000F948006800F00C0004280DD0F648006843
:1029400000F00C00082813D1F348001F006800F4C1
:102950008000B0F5800F0BD1EF4808380068C0F355
:102960004040002859D06068002856D10120D9E79E
:1029700000BF6068B0F5803F08D1E74808380068BC
:1029800040F48030E449083908601EE06068B0F522
:10299000A02F0DD1E0480838006840F48020DE49BF
:1029A000083908600846006840F4803008600CE090
:1029B000D9480838006820F48030D74908390860C1
:1029C0000846006820F48020086000BF606890B16D
:1029D000FFF7AAFD054606E0FFF7A6FD401B6428A9
:1029E00001D903209EE7CC4808380068C0F3404076
:1029F0000028F1D011E0FFF797FD054606E0FFF74C
:102A000093FD401B642801D903208BE7C248083896
:102A10000068C0F340400028F1D1207800F00200A7
:102A200002285FD1BC48006800F00C0058B1BA48D9
:102A3000006800F00C0008281CD1B748001F00688F
:102A400000F48000B0B9B44808380068C0F3400012
:102A500020B1E068012801D0012063E7AE480838C2
:102A6000006820F0F800216940EAC100AA4908394D
:102A7000086037E0E06800B30120A8490860FFF76C
:102A800053FD054606E0FFF74FFD401B022801D924
:102A9000032047E7A04808380068C0F3400000283A
:102AA000F1D09D480838006820F0F800216940EA1C
:102AB000C10099490839086014E00020974908606E
:102AC000FFF732FD054606E0FFF72EFD401B02280A
:102AD00001D9032026E7904808380068C0F3400079
:102AE0000028F1D1207800F0080008282CD1606976
:102AF000A8B101208A490860FFF716FD054606E0E7
:102B0000FFF712FD401B022801D903200AE7824883
:102B10006C300068C0F340000028F1D014E00020C1
:102B20007F490860FFF700FD054606E0FFF7FCFC63
:102B3000401B022801D90320F4E677486C30006876
:102B4000C0F340000028F1D1207800F004000428F0
:102B500070D1002770483830006800F0805090B97C
:102B600000BF002000906C483830006840F0805072
:102B70006949383108600846006800F080500090CC
:102B800000BF00BF01276748006800F48070B0B93B
:102B90006448006840F4807062490860FFF7C4FC34
:102BA000054606E0FFF7C0FC401B022801D90320C0
:102BB000B8E65C48006800F480700028F2D000BFDE
:102BC000A068012808D154486830006840F001002E
:102BD0005149683108601DE0A06805280DD14E48B4
:102BE0006830006840F004004B49683108600846CE
:102BF000006840F0010008600CE047486830006859
:102C000020F001004449683108600846006820F05F
:102C10000400086000BFA068A8B1FFF785FC054666
:102C200009E0FFF781FC401B41F28831884202D95C
:102C3000032077E626E0384868300068C0F340009B
:102C40000028EED013E0FFF76FFC054608E0FFF721
:102C50006BFC401B41F28831884201D9032061E6B8
:102C60002D4868300068C0F340000028EFD1012FE4
:102C700007D129483830006820F080502649383183
:102C8000086000BFA069002845D02348006800F014
:102C90000C0008285DD0A069022845D100201F49FA
:102CA0000866FFF741FC054606E0FFF73DFC401BC8
:102CB000022801D9032035E6174808380068C0F318
:102CC00040600028F1D1D4E907010843616A40EA75
:102CD00081110122A06AC2EB500041EA00412C2080
:102CE000005D41EA00600C49091F086001200B49A2
:102CF0000866FFF719FC054606E0FFF715FC401BC8
:102D0000022801D903200DE6034808380068C0F303
:102D100040600028F1D049E00838024000004742F6
:102D2000800E474200700040002021490866FFF7EE
:102D3000FBFB054606E0FFF7F7FB401B022801D925
:102D40000320EFE51B480068C0F340600028F2D183
:102D50002CE0A069012800D1E4E51648001D0668B2
:102D6000A069012820D006F48001E06981421BD1CE
:102D700006F03F01206A814216D147F6C07030400C
:102D8000616AB0EB811F0FD106F440310122A06AC5
:102D9000C2EB5000B1EB004F06D106F070612C2061
:102DA000005DB1EB006F01D00120BBE50020B9E56B
:102DB000000047420038024070B504460E461546F2
:102DC0000CB9012070BD94F8490028B9002084F89E
:102DD0004800204600F01CF804F108012068FEF7C6
:102DE00025F93146A2682068FEF74EF92946236B83
:102DF000D4E90102FEF7F6F8A168206850F8210036
:102E000040F00100A268216841F822000020D9E7C3
:102E100010B586B0044600BF00200090224800682C
:102E200040F00100204908600846006800F00100F9
:102E3000009000BF00BF00BF002000901A48083873
:102E4000006840F008001849083908600846006822
:102E500000F00800009000BF00BF00BF00200090FD
:102E60000846006840F0100008600846006800F05E
:102E70001000009000BF00BF4CF2037001900220D0
:102E8000029001200390022004900C20059001A9DB
:102E90000648FFF731FA4FF68070019001A9044807
:102EA000FFF72AFA06B010BD38380240000C024085
:102EB00000100240042808D14FF0E021096941F0D8
:102EC00004014FF0E022116107E04FF0E0210969B1
:102ED00021F004014FF0E0221161704770B5044603
:102EE0002546681EB0F1807F01D301200FE0681EE7
:102EF0004FF0E02148610F214FF0FF3000F0A6FDB8
:102F000000204FF0E021886107200861002070BD9B
:102F100010B504460CB9012010BD94F83D0028B945
:102F2000002084F83C00204600F025F8022084F8B8
:102F30003D00211D206800F0E9FA012084F84600D8
:102F400000BF84F83E0001213F200155402001557B
:102F50004120015500BF00BF012084F842004320FA
:102F60000155442001554520015500BF012084F83A
:102F70003D000020D0E77047014691F83D00012850
:102F800001D001207047022081F83D000868C06828
:102F900040F001000B68D8601A4B086898421BD0BB
:102FA0000868B0F1804F17D0174B0868984213D0CB
:102FB000164B086898420FD0154B086898420BD002
:102FC000144B0868984207D0134B0868984203D006
:102FD000124B086898420CD10868806800F007021C
:102FE000062A0CD00868006840F001000B681860E1
:102FF00005E00868006840F001000B6818600020D8
:10300000C0E700000000014000040040000800404C
:10301000000C004000040140004001400018004046
:10302000704770472DE9F84F04462068056820680E
:10303000C668206847694FF00009CA4605F00F09C5
:10304000B9F1000F0AD105F0200038B106F02000D8
:1030500020B1204600F0FBFABDE8F88FB9F1000F6F
:1030600072D007F0010018B906F4907000286BD0F8
:1030700005F0010030B106F4807018B1206C40F00A
:103080000100206405F0040030B107F0010018B120
:10309000206C40F00200206405F0020030B107F01F
:1030A000010018B1206C40F00400206405F0080015
:1030B00048B106F0200010B907F0010018B1206CEB
:1030C00040F008002064206C70B305F0200028B1A7
:1030D00006F0200010B1204600F0B9FA20684069DF
:1030E000C0F3801A206C00F0080010B9BAF1000F8C
:1030F00023D0204600F080FA2068406900F04000AC
:10310000402816D12068406920F0400021684861BD
:10311000A06B50B15648A16B0865A06BFEF7C2FBCF
:1031200010B1A06B016D88470CE02046FFF779FFD6
:1031300008E02046FFF775FF04E02046FFF771FF27
:103140000020206488E7FFE7206B012879D105F093
:103150001000002875D006F01000002871D000BFC4
:10316000002000902068006800902068406800906F
:1031700000BF00BF2068406900F04000402839D1FE
:10318000A06B006840681FFA80F8B8F1000F30D0DB
:10319000A08D40452DDDA4F82E80A06BC069B0F550
:1031A000807F1FD02068C06820F480702168C860CC
:1031B0002068406920F0010021684861206840696A
:1031C00020F0400021684861202084F83E00002063
:1031D00020632068C06820F010002168C860A06BE0
:1031E000FEF70BFBA08DE28D801A81B22046FFF71F
:1031F00017FF31E7A08DE18D401A1FFA80F8E08DAE
:10320000E8B1B8F1000F1AD02068C06820F49070BF
:103210002168C8602068406920F001002168486189
:10322000202084F83E00002020632068C06820F041
:1032300010002168C86041462046FFF7F1FE0BE709
:10324000FFE705F0800030B106F0800018B120469D
:1032500000F095FB00E705F0400030B106F04000BB
:1032600018B1204600F0E3F9F6E600BFF4E60000EE
:10327000E535000810B504460CB9012010BDA06961
:1032800000B100E000BF94F83D0028B9002084F8A8
:103290003C00204600F028F8242084F83D002068F7
:1032A000C06820F400502168C860204600F02EFA63
:1032B0002068006920F49040216808612068406916
:1032C00020F02A00216848612068C06840F400505E
:1032D0002168C86000202064202084F83D0084F824
:1032E0003E000020CAE7000010B586B004462E4913
:1032F0002068884255D100BF00BF002000902B48B5
:10330000006840F01000294908600846006800F095
:103310001000009000BF00BF00BF00BF00BF002032
:10332000009022481438006840F001001F49143909
:1033300008600846006800F00100009000BF00BF70
:1033400000BF00BF00BF002000900846006840F0AA
:10335000010008600846006800F00100009000BF0E
:1033600000BF00BF48150190022002900120039089
:10337000022004900720059001A90D48FEF7BCFF2C
:103380004FF4806001900720059001A90848FEF7DE
:10339000B3FF2520FFF71FF9032211462520FFF771
:1033A0002AF906B010BD0000001001404438024068
:1033B0000000024070B504460D46164694F83E00E3
:1033C000202816D105B10EB9012070BD00BF94F8B8
:1033D0003C00012801D10220F7E7012084F83C00DD
:1033E00000BF0020206332462946204600F0A4FAA0
:1033F000EBE70220E9E7000010B504462049206809
:1034000088423BD11F48008800F4004088BB1D481B
:10341000008800F4804070B11B4800780A2803D06F
:1034200000201849088024E01648008840F4004035
:10343000144908801DE0144800780D2806D1114871
:10344000008840F480400F49088012E00E48007860
:103450000C490988C1F30D010C4A505409480088F1
:10346000401C0849088008460088C72801DD002064
:103470000880012204490648FFF79CFF10BD0000A8
:103480000010014020000020220000203403002012
:10349000FC030020704700BFFEE700BFFEE7704757
:1034A00010B5FFF747F818F04BFD012801D018F0D0
:1034B0001DF810BD0348006840F470000149086021
:1034C0007047000088ED00E010B50E480068C06845
:1034D00000F0010078B10C490869804700200949D3
:1034E0000968486200BF642006490968C86264210F
:1034F0000448C16000BF6FF001000249096808611B
:1035000010BD0000040F00209400002010B50268D8
:10351000294B98420ED0B0F1804F0BD0274B9842E8
:1035200008D0274B984205D0264B984202D0264B14
:10353000984203D122F070024B681A431E4B984206
:1035400020D0B0F1804F1DD01C4B98421AD01C4B9C
:10355000984217D01B4B984214D01B4B984211D065
:103560001A4B98420ED01A4B98420BD0194B9842E6
:1035700008D0194B984205D0184B984202D0184BEE
:10358000984203D122F44072CB681A4322F08003A0
:103590004C6943EA040202608B68C3620B68836271
:1035A000054B984202D0084B984201D10B69036346
:1035B0000123436110BD00000000014000040040F1
:1035C00000080040000C00400004014000400140A1
:1035D000004401400048014000180040001C004029
:1035E0000020004070B50546AC6B0020E085E0840B
:1035F0002046FFF716FD70BD0168C96821F490717F
:103600000268D1600168496921F0010102685161D5
:10361000016B012905D10168C96821F01001026818
:10362000D160202180F83E1000210163704710B561
:1036300004462068C06820F040002168C86020204F
:1036400084F83D002046FFF725FF002010BD70B52F
:10365000044694F83E00222856D1A068B0F5805F59
:103660000CD1206950B90025A66A20684068C0F3D3
:1036700008003080A06A801CA06215E0A56A0026C0
:10368000A068B0F5805F03D0A06828B9206918B998
:1036900020684068287004E02068406800F07F00DF
:1036A0002870A06A401CA062E08D401E80B2E085B8
:1036B00040BB2068C06820F020002168C8602068F6
:1036C000C06820F480702168C8602068406920F0DC
:1036D000010021684861202084F83E00206B012809
:1036E0000AD12068C06820F010002168C860A18D50
:1036F0002046FFF795FC02E02046FFF77DFE002004
:10370000206370BD0020FCE70220FAE72DE9F84FA6
:1037100004462068006920F44050E16808432168AD
:1037200008612169A068084361690843E1690843A9
:1037300000902068C06849F20C61884300990843F2
:103740002168C8602068406920F44070A16908437E
:103750002168486176492068884203D0754920680D
:10376000884203D1FFF772F8814602E0FFF75EF866
:103770008146E069B0F5004F6CD102206168A0FB82
:10378000015003461920A9FB007001462A4638461D
:10379000FCF77EFD6421B0FBF1F04FEA001A022035
:1037A0006168A0FB01510B461920A9FB00712A4654
:1037B0003846FCF76DFD834602206168A0FB01508E
:1037C00003461920A9FB00712A463846FCF760FD24
:1037D0006421B0FBF1F000EBC00101EB0010ABEB9A
:1037E0008000322101EBC0006421B0FBF1F000F059
:1037F000F8000AEB400A02206168A0FB0150034672
:103800001920A9FB007001462A463846FCF740FD06
:10381000834602206168A0FB015003461920A9FBE2
:1038200000712A463846FCF733FD6421B0FBF1F005
:1038300000EBC00101EB0010ABEB8000322101EB8B
:10384000C0006421B0FBF1F000F007005044216893
:1038500088606AE004206168A0FB015003461920DB
:10386000A9FB007001462A463846FCF711FD824646
:1038700004206168A0FB015003461920A9FB0070D9
:1038800001462A463846FCF703FD6421B0FBF1F0FF
:1038900000EBC00101EB0010AAEB8000322101EB2C
:1038A00000106421B0FBF1F000F0F00A0420616820
:1038B000A0FB017003461920A9FB00513A46284697
:1038C000FCF7E6FC6421B0FBF1F00AEB001A0420DF
:1038D0006168A0FB01510B461920A9FB00712A4623
:1038E0003846FCF7D5FC834604206168A0FB0150F4
:1038F00003461920A9FB007001462A463846FCF70A
:10390000C7FC6421B0FBF1F000EBC00101EB00103B
:10391000ABEB8000322101EB00106421B0FBF1F031
:1039200000F00F00504421688860BDE8F88F000067
:10393000001001400014014010B5034699629A85B9
:10394000DA8500201864222083F83E0000BF0020A2
:1039500083F83C0000BF1868C06840F480701C68A1
:10396000E0601868406940F001001C6860611868F8
:10397000C06840F020001C68E060002010BD0146D7
:1039800091F83D00212828D18868B0F5805F0BD1DF
:10399000086948B90A6A1088C0F308000B685860C3
:1039A000086A801C086205E00B6A581C08621878D7
:1039B0000B685860C88C401E80B2C88458B908682B
:1039C000C06820F080000B68D8600868C06840F0CC
:1039D00040000B68D860002070470220FCE7000020
:1039E00010B50248FFF71EFB10BD0000FC030020CD
:1039F00000BFFEE70FB4054B10B503A9044A0298B7
:103A000000F048F810BC5DF814FB0000D573000806
:103A10001C0000200FB4084B10B504A902AA03989B
:103A200000F038F8044602A9002000F064FA2046AD
:103A300010BC5DF814FB0000F73E00080248006867
:103A4000C0F30220704700000CED00E010B5002824
:103A500004DB0A07130E054A135406E00A07140E86
:103A6000034A00F00F031B1FD45410BD00E400E014
:103A700018ED00E002E008C8121F08C1002AFAD1C0
:103A800070477047002001E001C1121F002AFBD1DE
:103A9000704700002DE9FF4F8DB00F460546002608
:103AA00006E025280BD0DDE90F1290476D1C761C2F
:103AB00028780028F5D111B03046BDE8F08F0024F9
:103AC000A246A1460122EC4900E0044315F8013F5B
:103AD000203B02FA03F00842F7D128782A2810D0B8
:103AE0006FF02F022878A0F13001092914D80AEBD1
:103AF0008A0102EB410144F0020400EB010A6D1C53
:103B0000F0E701CF5FEA000A03D544F40054CAF19C
:103B1000000A44F002046D1C28782E2817D115F8ED
:103B2000010F44F004042A280ED06FF02F022878E9
:103B3000A0F1300109290AD809EB890102EB410102
:103B400000EB01096D1CF2E757F8049B6D1C287807
:103B50006C280FD006DC4C2817D068280DD06A28B6
:103B600014D104E0742810D07A280FD10DE044F469
:103B700000140AE044F4801401E044F4401469782D
:103B8000814202D104F580146D1C6D1C2A786E2AC6
:103B90001FD00CDC632A31D004DC002A8BD0582AD9
:103BA00011D1A3E0642A68D0692A0CD165E0732A98
:103BB0002ED004DC6F2A73D0702A04D19BE0752AC2
:103BC0006FD0782A6ED01046DDE90F129047761C30
:103BD00050E1C4F30250022806D0032809D004287B
:103BE00001CF09D0066045E101CFF117C0E90061BE
:103BF00040E101CF06803DE106703BE117F8040B80
:103C00008DF8000000208DF80100EB46012003E054
:103C100057F804BB4FF0FF3061074FF0000102D4AA
:103C20000DE008F10101884649450FDA8045F8DBCF
:103C30001BF808100029F4D108E008F101018846BA
:103C40008142FADB1BF808100029F6D1DDE90F23C9
:103C5000AAEB08008146214600F036F9304400EB1B
:103C6000080604E0DDE90F121BF8010B9047B8F1DC
:103C70000108F7D221464846F7E00A21C4F302536F
:103C80004FF0000B0891022B04D001CFC117032B7A
:103C900009D00AE0FF1D27F00707F7E8020108E056
:103CA00032E01FE020E000B2C117042B01D140B286
:103CB000C117031E71F1000307DA4FF0000CD0EBBF
:103CC0000C006CEB01012D2302E0230504D52B230E
:103CD0008DF82430012303E0E30701D02023F7E728
:103CE000984658E00A2110E010210EE010204FF015
:103CF000000B08900CE010214FF0000B44F004047E
:103D00004FF00809089103E008214FF0000B0891DB
:103D1000C4F30253022B04D001CF0021032B06D0A1
:103D200006E0FF1D27F00707F7E8020103E080B275
:103D3000042B00D1C0B24FF0000823072BD5702A06
:103D400007D0DDF820C08CF0100C5CEA0B0C05D01D
:103D50000EE040238DF82430012308E050EA0103EF
:103D600006D030238DF824308DF825200223984684
:103D7000DDF820C08CF0080C5CEA0B0C0BD150EA8B
:103D8000010301D1630706D530238DF824304FF0AD
:103D90000108A9F10109582A04D038A20B9208AAF7
:103DA0000A920BE03AA2F9E75B46089AFCF770FA30
:103DB0000B9B9B5C0A9A521E0A92137050EA0102F6
:103DC000F2D10A98ADEB000000F1200B600702D59C
:103DD00024F4803401E04FF00109D94502DDA9EB5C
:103DE0000B0000E0002000EB0B0141440890AAEB1F
:103DF000010AE00306D4DDE90F232146504600F016
:103E000063F806444FF0000908E009A911F8090019
:103E1000DDE90F12904709F10109761CC145F4DB79
:103E2000E0030CD5DDE90F232146504600F04CF8A5
:103E3000064404E0DDE90F1230209047761C089913
:103E4000481E08900029F5DC08E00A980A990078D5
:103E5000491C0A91DDE90F129047761CBBF1000165
:103E6000ABF1010BF1DC21465046DDE90F2300F0F8
:103E700019F806446D1C1BE6092801003031323365
:103E80003435363738396162636465660000000096
:103E90003031323334353637383941424344454680
:103EA000000000002DE9F041044600251E4617469B
:103EB000880404D405E039462020B0476D1C641EF8
:103EC000F9D52846BDE8F0812DE9F04104460025EA
:103ED0001E469046C80301D5302700E020278804FD
:103EE00004D505E041463846B0476D1C641EF9D53F
:103EF0002846BDE8F0810A68531C0B6010707047BB
:103F00002DE9F04706460F46904634461CB96FF03F
:103F10000500BDE8F08704F1140008B1606920B91C
:103F200000BF00BF6FF00500F3E7A7B96FF00C000A
:103F300009F0BEFB8146494604F114000EF080FFF3
:103F400030B9A06A20B1002211462046A36A9847E2
:103F50006FF00500DDE700BFB8F1000F04D000BF2F
:103F60002CA0FFF747FD00BF00BF00BF00BF2078B7
:103F7000A16A0BF013FA0546A5B96FF00C0009F021
:103F800097FB8146494604F114000EF059FF30B901
:103F9000A06A20B1002211462046A36A98474FF03C
:103FA000FF30B6E76F6028460EF0AEFB294604F1FD
:103FB00014000EF045FF20B3D5F8049000214846C8
:103FC0000FF0DEFB0021484612F0DCFD00214846E0
:103FD00013F042F900221146484611F01DFE00215F
:103FE00048460FF0A5FF0020686005F110000EF0B4
:103FF000CDFE0020286128460BF012FB4FF0FF3069
:1040000087E7A06A20B1002211462046A36A98479C
:1040100000207EE7657870656374206E6577706355
:1040200062203D3D204E554C4C206F7220657272CF
:10403000203D3D204552525F4F4B00002DE9F0419D
:1040400005460E46002440E00EF010FE07462148CB
:1040500000EB04100068002833D11E4800EB041068
:10406000056038460EF060FE00201A4901EB04118D
:10407000486000BF174800EB0410807B20B100BFF0
:1040800015A0FFF7B7FC00BF00BF0020114901EBEE
:1040900004110881287800F0F000102804D10EB136
:1040A000012002E0002000E001200A4901EB041198
:1040B00048810020074901EB041188812046BDE8B2
:1040C000F08138460EF030FE641C042CBCDB4FF04F
:1040D000FF30F4E780640020736F636B6574735B7B
:1040E000695D2E73656C6563745F77616974696E71
:1040F00067203D3D203000002DE9F0418AB00446A4
:104100000D4616461F46DDF84080244824490860C5
:1041100008464760C0F80880C46006614561002118
:104120000176417681760121C176002101774177C0
:10413000FDF720FA18B101200AB0BDE8F081184857
:104140000068406940F00200154909684861142080
:10415000FEF741FA00220A211420FEF74CFA002053
:104160000590069001200790002000900190029099
:1041700003900490012008900E2009906946084899
:10418000FDF77AF808B10220D6E70548FDF706FBEF
:1041900008B10320D0E70020CEE700000064004013
:1041A0004805002070B504460D4600211048FDF773
:1041B000F5F808B9002070BD2B460E4A00210C48C6
:1041C000FDF700F908B10020F5E70A480068A042B1
:1041D00009D108484068A04205D10648806810B956
:1041E0000448C06808B10020E5E70248007CE2E727
:1041F0004805002088050020F8B504460D461646FF
:10420000002701200090154804604460B4F5006F59
:1042100001D2002000E00420104988600020C8601E
:10422000084606616B462A460D48FCF77AFF08B13E
:104230000120F8BD0AE0781C87B2B7F5805F05DB86
:1042400007480099FCF742FF0120F2E70448FDF718
:1042500076F90328EFD10020EBE70000700500207D
:104260004805002070B504460420FEF723FE0A48E6
:10427000046025464FF47A7045434FF0E020006912
:1042800040F002004FF0E0210861084645610069F6
:1042900040F00100086170BD1800002030B50446F0
:1042A000002504E04FF47A7000F004F86D1CA5427C
:1042B000F8D330BD70B5034600224FF0E026756993
:1042C0000D4E366803FB06F44FF0E026B16910E0AE
:1042D0004FF0E026B06988420BD0884202D20E1A15
:1042E000324402E02E1A0E4432440146A24200D368
:1042F00000E0EDE700BF70BD1800002070B5054676
:104300000E4600BF2DB900BF0CA0FFF773FB00BF26
:1043100070BD00BF6C6A00BF00BF6CB16079082837
:104320000AD100BF00BF3068E169884204D100BFF4
:1043300000BF284600F01CFA00BFE9E76E6574690B
:104340006620213D204E554C4C0000007CB50646B1
:1043500000BF2EB900BF44A0FFF74CFB00BF7CBDDF
:1043600000BF746A00BF2CB900BF46A0FFF742FB34
:1043700000BFF4E700BF00BF00BF00206082A06A5A
:10438000401C90B100BF00BFA06A1E303C21B0FBB2
:10439000F1F5B5F5803F01D34FF6FF75A582A08AF0
:1043A00008B90120A08200BF00BFE06A401CA0B194
:1043B00000BF00BFE06A1E303C21B0FBF1F5B5F54F
:1043C000803F01D34FF6FF756581608908B90120F0
:1043D000608100BF00BF6089E081206B401CA0B1FC
:1043E00000BF00BF206B1E303C21B0FBF1F5B5F5DE
:1043F000803F01D34FF6FF75A581A08908B9012040
:10440000A08100BF00BFA08920826089A189884265
:1044100004DBA089002801DD00206081E07910B173
:10442000206A01900FE0207F7F2802DCFF210191AC
:1044300008E0C02803DB6FF07F41019102E04FF6F6
:10444000FF71019100BF606A009000BF00BF0A21A8
:10445000204601F00FFA6B4601AA04F11C01304618
:104460000BF022FF00BF7AE7646863705F62696ED9
:10447000643A206E6574696620213D204E554C4C8F
:1044800000000000646863705F62696E643A2064D3
:1044900068637020213D204E554C4C002DE9F041C1
:1044A0000646746A00BF00BF0821204601F0E2F909
:1044B000002204F11C01304602F06EFA05460DB1EF
:1044C00000BF00BFA079FF2802DAA079401CA071CC
:1044D0004FF4FA7707F2F310394690FBF1F02081A0
:1044E00000BF00BFBDE8F08170B500BF00BF1B4832
:1044F00005682FE06C6AFCB16079E8B1A08A78B1F8
:10450000608A401C80B26082A18A884208D100BFC4
:1045100000BF284600F0D8FF284601F0B3F918E0A4
:10452000208A50B1218A481E2082012905D100BF6E
:1045300000BF284601F063FA0BE0E08948B1E18949
:10454000481EE081012904D100BF00BF284601F0C8
:1045500031FA2D68002DCDD170BD0000140200206D
:104560002DE9F05F07460D4616469A4600BF3FB953
:1045700000BF44A0FFF73EFA00BF0020BDE8F09F57
:1045800000BF00BF35B900BF46A0FFF733FA00BF38
:104590000020F3E700BF4FF420724FF49A713620E9
:1045A0000BF0DCFF8146B9F1000F03D100BF00BF63
:1045B0000020E3E700BFB9F80A00B0F59A7F04D203
:1045C00000BF40A0FFF716FA00BF00BF032E02D1C4
:1045D0006879032808D1A87918B9FBF799FE4949E9
:1045E000086048480068286000BF00BFD9F8044050
:1045F0004FF49A712046FBF7C4FE012020706070D2
:1046000097F83000A070286808F00CF96060082E58
:104610000BD0042E09D0072E07D0032E07D16879BE
:10462000052802D06879042801D17868E0604FF04D
:1046300000080BE007F12A0010F8081004F11C0034
:1046400000F8081008F101001FFA80F8B8F1060F11
:10465000F0D32D48C4F8EC000123352204F1F00119
:10466000002000F0B1FA8346324604F1F0015846CA
:1046700000F0C8FA8346BAF1000F01D0AAF800B0E2
:1046800048467BE7646863705F6372656174655F69
:104690006D73673A206E6574696620213D204E5522
:1046A0004C4C0000646863705F6372656174655FA1
:1046B0006D73673A206468637020213D204E554C2D
:1046C0004C000000646863705F6372656174655FCD
:1046D0006D73673A20636865636B2074686174204A
:1046E000666972737420706275662063616E2068FB
:1046F0006F6C642073747275637420646863705F98
:104700006D736700880200206382536310B500BF99
:104710000C480078002804DC00BF0BA0FFF76AF902
:1047200000BF00BF07480078401E064908700846D1
:10473000007830B90D48006814F02EFD00200B49B8
:10474000086010BD84020020646863705F7063625B
:104750005F726566636F756E7428293A20726566AC
:10476000636F756E74206572726F72008002002034
:104770002DE9FE4F0646746A00BF00BF0C2120469B
:1047800001F078F802AB042221463046FFF7E8FE3C
:10479000054675B3D5F804800423322208F1F001F0
:1047A000BDF8080000F010FA0290E06908F03AF84D
:1047B0008246524608F1F001BDF8080000F052FAB6
:1047C00002902A4608F1F001BDF8080000F0C6FA90
:1047D00014484323144A2946CDE900601348006871
:1047E00014F048FE074628460CF08EFA00BF00BFC2
:1047F00004E0FFE700BF00BF4FF0FF37A079FF28BC
:1048000002DAA079401CA07142F2107909F2F3108B
:104810004FF4FA7190FBF1F0208100BF00BF3846E1
:10482000BDE8FE8F5CF8010860F8010880020020F6
:104830002DE9FE4F07467C6A4FF0000A00BF00BF1B
:104840000020E0610621204601F014F802AB0122AD
:1048500021463846FFF784FE0546002D4AD06E6893
:1048600000BF00BF0223392206F1F001BDF80800A5
:1048700000F0AAF902903A8D06F1F001BDF80800A7
:1048800000F034FA02900423372206F1F001BDF85B
:10489000080000F099F90290D0460DE0274810F882
:1048A000082006F1F001BDF8080000F0ABF9029015
:1048B00008F1010000F0FF08B8F1040FEED32A461A
:1048C00006F1F001BDF8080000F048FA00BF00BF93
:1048D0001B4843231B4A2946CDE900701A4800684B
:1048E00014F0C8FD00BF00BF28460CF00DFA00BF51
:1048F00000BF01E000BF00BFA079FF2802DAA07965
:10490000401CA071A079062803DAA1790120884013
:1049100000E03C2000EB4001C1EBC0104FF6FF71FE
:1049200001EAC00909F2F3104FF4FA7190FBF1F0BB
:10493000208100BF00BF5046BDE8FE8F7C020020F2
:104940005CF8010860F801088002002070B50D488D
:10495000056814E06C6A8CB12089012803DD208988
:10496000401E20810AE02089012807D12089401EAD
:10497000208100BF00BF284601F069F82D68002D96
:10498000E8D170BD14020020F8B506460F46746ADF
:104990000020206260622648C07810B12548C068B7
:1049A000A0622348007918B122480069E06202E061
:1049B000A06A4008E0621E48407918B11D4840696D
:1049C000206304E0A06AC0EBC000C008206338691F
:1049D000E0611748807938B11649886907F022FFED
:1049E00020620120E07101E00020E0711048C079F0
:1049F00020B11049C86907F015FF606200250DE07D
:104A000005F108010B4A52F8210007F00BFF009056
:104A10006946284601F004FB681CC5B2022D05DA80
:104A200005F108000249085C0028E9D1F8BD000042
:104A3000585801203058012070B50446656A00BFFF
:104A400000BF0C21284600F015FF054B1A46114601
:104A500020460BF029FC2046FFF7EAFE70BD00005F
:104A60005CF8010870B505460E466C6A00BF00BFD1
:104A70000B48807880B1002020810A49886807F0BF
:104A8000D1FEA06100BF00BF3069E06100BF00BF80
:104A9000284600F009FE01E000BF00BF70BD000025
:104AA000585801203058012010B51C4800780028C3
:104AB0002DD100BF1A48006820B100BF19A0FEF731
:104AC00099FF00BF00BF14F007FB154908600846B6
:104AD000006810B94FF0FF3010BD11480068407AEF
:104AE00040F020000E4909684872442217490C48DA
:104AF000006814F07DF8432214490948006814F056
:104B0000EBF8002212490648006814F027FB03481E
:104B10000078401C014908700020DDE78402002075
:104B200080020020646863705F696E635F70636217
:104B30005F726566636F756E7428293A206D656DC6
:104B40006F7279206C65616B000000005CF80108F1
:104B50006D53000870B505466C6A04B970BD607984
:104B6000042809D003DC80B103280FD107E0052811
:104B700003D00A280AD101E000BF00BF00BF002017
:104B8000A071284600F05EFB10E00FE000BF6079E6
:104B90000C2804DD00BF07A0FEF72CFF00BF00BFFC
:104BA0000020A0712846FFF743FE00BF00BF00BFF2
:104BB000D4E70000696E76616C6964206468637094
:104BC0002D3E7374617465002DE9F04104460D4675
:104BD00017461E4600BFA01C3044442804D900BF1D
:104BE0000748FEF707FF00BF00BF2046611C8CB2DC
:104BF0002F542046611C8CB22E542046BDE8F08113
:104C0000A8FB010870B504460D46164600BF442CAB
:104C100004D300BF05A0FEF7EDFE00BF00BF204695
:104C2000611C8CB22E54204670BD00006468637015
:104C30005F6F7074696F6E5F627974653A206F7030
:104C400074696F6E735F6F75745F6C656E203C2066
:104C5000444843505F4F5054494F4E535F4C454E6C
:104C60000000000070B504460D46164600BF201D2A
:104C7000442804D900BF0EA0FEF7BCFE00BF00BF51
:104C8000320E2046611C8CB22A54C6F307422046DD
:104C9000611C8CB22A54C6F307222046611C8CB2D8
:104CA0002A542046611C8CB22E54204670BD000050
:104CB000646863705F6F7074696F6E5F6C6F6E674E
:104CC0003A206F7074696F6E735F6F75745F6C6597
:104CD0006E202B2034203C3D20444843505F4F50F1
:104CE00054494F4E535F4C454E00000070B504468A
:104CF0000D46164600BFA01C442804D900BF08A0DA
:104D0000FEF778FE00BF00BF320A2046611C8CB25D
:104D10002A542046611C8CB22E54204670BD0000DF
:104D2000646863705F6F7074696F6E5F73686F72D1
:104D3000743A206F7074696F6E735F6F75745F6C17
:104D4000656E202B2032203C3D20444843505F4F6D
:104D50005054494F4E535F4C454E000070B50446C9
:104D60000D461646FF222046611C8CB22A5404E0F0
:104D700000222046611C8CB22A54442C02D304F039
:104D8000030008B1442CF3D304F1F00081B23046A3
:104D90000CF0B4F870BD00002DE9F04F8BB08146E7
:104DA0000020069005900A21DE48FBF7EAFAB9F8E0
:104DB0000A002C2804D26FF001000BB0BDE8F08F80
:104DC000D9F8040004904FF0F00AB9F808000790F1
:104DD00000BF4C46CDF820A00AE06089AAEB000095
:104DE0001FFA80FA61890798401A80B207902468F8
:104DF00014B160895045F0DD14B96FF00100DCE7B3
:104E000056460798099060680A9050E10A98805DBC
:104E1000039000274FF0FF38B01C1FFA80FBB3450A
:104E200001DAB81EC9E76189701C814203DD711C7B
:104E30000A98455C07E0206818B12068406800784F
:104E400000E0002005462F460398342854D00BDCA0
:104E5000032820D003DC80B101286FD111E006289F
:104E600024D033286AD13DE0352857D036285FD08A
:104E70003A2868D03B287AD16FE0002005460746E3
:104E80007BE000BF042D02D06FF0050095E700BF66
:104E90004FF0060871E0042700BFBD4202DA6FF050
:104EA00005008AE700BF4FF0070866E000BFE9177A
:104EB00005EB91718910A5EB810111B16FF005002F
:104EC0007BE700BF082D01DA284600E008200746EE
:104ED00000BFBD4202DA6FF005006EE700BF4FF081
:104EE00008084AE000BF042D02D06FF0050064E717
:104EF00000BF4FF0030840E000BF012D02D06FF06B
:104F000005005AE700BF00BF0898F02802D06FF0F4
:104F1000050052E700BF4FF000082EE000BF012D52
:104F200002D06FF0050048E700BF4FF0010824E011
:104F300000BF042D03D06FF005003EE717E000BF6F
:104F40004FF0020819E000BF042D02D06FF00500F9
:104F500033E700BF4FF004080FE000BF042D02D07C
:104F60006FF0050029E700BF4FF0050805E00027B6
:104F700000BF00BF00BF00BF00BF00BF039810B953
:104F8000701C86B277E07019801CB0F5803F02DBA0
:104F90006FF0010011E77019801C86B2002F6ADDE6
:104FA0000020029000BF00BFB8F1000F02DBB8F193
:104FB0000A0F04DB00BF5CA0FEF71CFD00BF00BFB2
:104FC000584810F80800B0BB042F01DA384600E05A
:104FD000042001905B4602A92046019A0BF004FDD3
:104FE00001460198814202D06FF00100E5E6042FEE
:104FF00027DD00BFF91707EB91718910A7EB81013D
:1050000011B16FF00500D8E600BF0120454901F855
:105010000800029807F006FC484941F82800381FAC
:10502000C7B20BF1040080B200900098584503DA33
:105030006FF00100C1E61DE0DDF800B008F10108E5
:10504000B1E7042F04D1029807F0ECFB029009E0CD
:1050500000BF012F02D06FF00500AEE600BF9DF843
:105060000800029001202F4901F8080033490298F6
:1050700041F8280000BF6089B04217DC6089301A0F
:1050800086B261890998401A80B2099009988642CF
:1050900009DA246800BF14B96FF005008DE600BF7F
:1050A00060680A9002E06FF0010086E600BF3CB144
:1050B0000998864204DA0A98805DFF287FF4A6AE3C
:1050C00018480078D0B11D4908680021154A1170B0
:1050D000012803D10121069100BF0EE0022803D16F
:1050E0000121059100BF08E0032804D101210591A9
:1050F000069100BF01E000BF00BF00BF069830B1BD
:10510000002006904FF06C0AEC20079061E60598AD
:1051100030B1002005904FF02C0A6C20079058E623
:1051200000204AE658580120636865636B20646577
:10513000636F64655F696478000000003058012087
:105140002DE9FC4707467C6A00BF00BF04212046CA
:1051500000F090FB01AB032221463846FFF700FA2E
:105160000546002D44D06E680223392206F1F00175
:10517000BDF80400FFF728FD01903A8D06F1F0011B
:10518000BDF80400FFF7B2FD01900423372206F1B9
:10519000F001BDF80400FFF717FD01904FF0000883
:1051A0000DE0254810F8082006F1F001BDF80400D4
:1051B000FFF728FD019008F1010000F0FF08B8F1A9
:1051C000040FEED32A4606F1F001BDF80400FFF704
:1051D000C5FD4323194A294619480097006814F071
:1051E000BBF8814628460BF08FFD00BF00BF03E0EF
:1051F00000BF00BF4FF0FF39A079FF2802DAA07985
:10520000401CA071A0790A2805DAA0794FF47A71C0
:1052100010FB01F001E042F210701FFA80FA0AF26E
:10522000F3104FF4FA7190FBF1F0208100BF00BF42
:105230004846BDE8FC8700007C02002060F80108B9
:10524000800200202DE9FC5F8046D8F8244000BF92
:1052500000BF0321204600F00DFB01AB03222146D5
:105260004046FFF77DF90646002E56D075680223AA
:10527000392205F1F001BDF80400FFF7A5FC01900B
:105280004FF4107205F1F001BDF80400FFF72EFD98
:1052900001900423322205F1F001BDF80400FFF76C
:1052A00093FC0190E06907F0BDFA83465A4605F188
:1052B000F001BDF80400FFF7D5FC0190042337226C
:1052C00005F1F001BDF80400FFF77EFC0190002716
:1052D0000AE02348C25D05F1F001BDF80400FFF7C4
:1052E00091FC0190781CC7B2042FF2D3324605F12D
:1052F000F001BDF80400FFF731FD4323194A3146A0
:105300001948CDF80080006814F026F88146304630
:105310000BF0FAFC00BF00BF03E000BF00BF4FF07E
:10532000FF39A079FF2802DAA079401CA071A0798A
:105330000A2805DAA0794FF47A7110FB01F001E038
:1053400042F210701FFA80FA0AF2F3104FF4FA7169
:1053500090FBF1F0208100BF00BF4846BDE8FC9FF4
:105360007C02002060F80108800200202DE9F05F37
:105370001646DDF828B0514847687C6AD6F8049094
:105380000CB1207900B994E000BF00BF00BF00BF9E
:1053900000BF00BF00BF00BF70892C2802DA00BF29
:1053A00000BF86E099F80000022802D000BF00BFCD
:1053B0007FE000250CE007F12A00415D09F11C00A7
:1053C000405D814202D000BF00BF72E0681CC5B2E0
:1053D00097F83000A84201DD062DECD3D9F804007F
:1053E00007F020FA2168884202D000BF00BF60E0C9
:1053F00021463046FFF7D0FC10B100BF00BF58E097
:1054000000BF00BF2E48407810B900BF00BF50E079
:10541000D6F804A02B4890F80480B8F1050F26D1E7
:1054200000BF00BF6079012810D151463846FFF710
:10543000ABFA97F8310000F0080018B13846FFF7D2
:105440002DF835E03846FEF781FF31E0607903281A
:1054500005D06079042802D06079052828D151460A
:105460003846FFF791FA3846FEF770FF20E0B8F1B2
:10547000060F11D16079032808D06079012805D082
:105480006079042802D06079052805D100BF00BFEB
:105490003846FFF7D1FA0BE0B8F1020F08D1607976
:1054A000062805D100BF00BF51463846FFF7DAFA9B
:1054B00000BF30460BF028FCBDE8F09F406900209B
:1054C00058580120305801202DE9FE430646746AE1
:1054D00000BF00BF0CB9BDE8FE83607900B9FAE7F0
:1054E000A06902900020A061E061206260622063F8
:1054F000E062A062A08260822082E081304600F0FB
:1055000045FA00283FD00021204600F0B3F901AB56
:10551000072221463046FFF723F8054655B36F684A
:105520000423362207F1F001BDF80400FFF74CFB1D
:105530000190029807F076F98046424607F1F001A3
:10554000BDF80400FFF78EFB01902A4607F1F00139
:10555000BDF80400FFF702FC432302AA29461048C5
:105560000096006813F0F8FE28460BF0CDFB00BF54
:1055700000BF01E000BF00BF0A4B1A46114630468B
:105580000AF092FE03E00021204600F073F9207932
:1055900018B1FFF7BBF80020207100BF9BE70000A7
:1055A000800200205CF801082DE9FC4707467C6A70
:1055B00000BF00BF0521204600F05CF901AB0322CB
:1055C00021463846FEF7CCFF0546002D45D06E68D3
:1055D0000223392206F1F001BDF80400FFF7F4FAC6
:1055E00001903A8D06F1F001BDF80400FFF77EFB53
:1055F00001900423372206F1F001BDF80400FFF703
:10560000E3FA01904FF000080DE0254810F808205B
:1056100006F1F001BDF80400FFF7F4FA019008F17B
:10562000010000F0FF08B8F1040FEED32A4606F19E
:10563000F001BDF80400FFF791FB432304F11802C9
:10564000294618480097006813F086FE81462846D0
:105650000BF05AFB00BF00BF03E000BF00BF4FF0DC
:10566000FF39A079FF2802DAA079401CA071A07947
:105670000A2805DAA0794FF4FA6110FB01F001E085
:1056800044F620601FFA80FA0AF2F3104FF4FA7120
:1056900090FBF1F0208100BF00BF4846BDE8FC87C9
:1056A0007C020020800200202DE9FE4F074600BF4B
:1056B00047B900BF5DA0FEF79DF900BF6FF00F0076
:1056C000BDE8FE8F00BF7C6A00BF3CB900BF5EA092
:1056D000FEF790F900BF6FF00500F1E700BF00BFD3
:1056E00000BF0121204600F0C5F802AB032221468D
:1056F0003846FEF735FF0646002E71D07568022346
:10570000392205F1F001BDF80800FFF75DFA0290BB
:105710003A8D05F1F001BDF80800FFF7E7FA0290B5
:105720000423322205F1F001BDF80800FFF74CFA1E
:105730000290E06907F076F883465A4605F1F001D9
:10574000BDF80800FFF78EFA02900423362205F117
:10575000F001BDF80800FFF737FA0290A06907F0E2
:1057600061F883465A4605F1F001BDF80800FFF7DD
:1057700079FA02900423372205F1F001BDF8080000
:10578000FFF722FA02904FF000080DE0354810F8BC
:10579000082005F1F001BDF80800FFF733FA029088
:1057A00008F1010000F0FF08B8F1040FEED3324613
:1057B00005F1F001BDF80800FFF7D0FA2A484323AD
:1057C0002A4A3146CDE900702948006813F052FE9C
:1057D000814630460BF098FA00BF00BF04E0FFE7B7
:1057E00000BF00BF4FF0FF39A079FF2802DAA0798F
:1057F000401CA071A079062803DAA1790120884015
:1058000000E03C2000EB4001C1EBC0104FF6FF71FF
:1058100001EAC00A0AF2F3104FF4FA7190FBF1F0BA
:10582000208100BF00BF48464AE7000064686370FB
:105830005F73656C6563743A206E657469662021D8
:105840003D204E554C4C0000646863705F73656C7E
:105850006563743A206468637020213D204E554C86
:105860004C0000007C0200205CF8010860F8010890
:105870008002002042798A4203D041710022827165
:105880000281704770B5044600BF3CB900BF2FA02D
:10589000FEF7B0F800BF6FF00F0070BD00BF00BF93
:1058A00094F8310000F0010038B900BF2BA0FEF7DA
:1058B000A1F800BF6FF00F00EFE700BF656A00BFFF
:1058C00000BF208DB0F5107F04DA00BF00BF4FF09D
:1058D000FF30E2E775B900BF00BF342009F0F2F8ED
:1058E000054625B900BF00BF4FF0FF30D5E7656220
:1058F00000BF05E000BF00BF287908B1FEF706FF32
:1059000034212846FAF73DFD00BF00BFFFF7CCF871
:1059100010B14FF0FF30C0E70120287194F831003A
:10592000C0F3800028B902212846FFF7A3FF00201A
:10593000B3E72046FEF77CFF06462EB12046FFF770
:10594000C3FD4FF0FF30A8E73046A6E76E657469E7
:105950006620213D204E554C4C0000006E65746958
:1059600066206973206E6F742075702C206F6C64D4
:10597000207374796C6520706F72743F00000000B2
:1059800010B504462046FFF79FFD10BD014679B1D2
:10599000486A68B14A6A50790A2805D050790528C2
:1059A00002D05079042801D1012070470020FCE783
:1059B0000020FAE770B505466C6A00BF00BF607949
:1059C000012805D060790A2802D06079052815D110
:1059D00000BF00BF2846FFF7E7FDA189628A881A49
:1059E00000EBD0710122B2EB610F07DCA189628A62
:1059F000881A00EBD071C1F34F01E18170BD70B521
:105A000005466C6A00BF00BF6079012808D0607944
:105A10000A2805D06079052802D06079042815D1BC
:105A200000BF00BF2846FFF78BFBA18A628A881A55
:105A300000EBD0710122B2EB610F07DCA18A628A10
:105A4000881A00EBD071C1F34F01218270BD70B58F
:105A500005466C6A00BF00BF60790C2802D06079EF
:105A6000062805D100BF00BF2846FEF7E1FE31E061
:105A70006079012811D100BF00BFA079052803DC9F
:105A80002846FFF711FE25E000BF00BF2846FFF7BC
:105A90001BFD2846FFF7F6FE1CE0607908280CD1B4
:105AA00000BF00BFA079012803DC2846FEF7F6FC02
:105AB00010E02846FEF74AFC0CE06079032809D183
:105AC000A079022803DA2846FFF7BCFB02E028464B
:105AD000FEF7AEFE70BD000094B000BF6BE0C821C1
